:020000040800F2
:10000000984E0020590200089D2F00085328000830
:10001000152F000845050008E13500080000000024
:100020000000000000000000000000009D0100082A
:100030007508000800000000F101000831300008D8
:1000400073020008730200087302000873020008BC
:1000500073020008730200087302000877080008A2
:100060007D08000873020008730200084D070008AD
:10007000650700087D070008730200087302000886
:100080009507000873020008730200087302000855
:10009000490500087302000873020008830800087D
:1000A0007302000829310008730200087302000877
:1000B000353100087302000873020008730200085B
:1000C000730200087302000873020008730200083C
:1000D000730200087302000873020008730200082C
:1000E000730200087302000873020008730200081C
:1000F000730200087302000873020008730200080C
:1001000073020008730200087302000873020008FB
:1001100073020008730200084131000873020008EE
:10012000AD07000873020008B90700087302000851
:1001300073020008730200087302000873020008CB
:1001400055050008730200087302000873020008D6
:1001500073020008730200087302000873020008AB
:10016000730200087302000873020008730200089B
:100170007302000873020008730200080000000008
:100180007302000873020008DFF80CD000F0D8F802
:10019000004800475D360008984E00202B4B196838
:1001A0000868B0E8F04F80F30988BFF36F8F4FF015
:1001B000000080F3118870470000000006480068C6
:1001C000006880F3088862B661B6BFF34F8FBFF353
:1001D0006F8F00DF00BF00BF08ED00E0DFF80C000C
:1001E000016841F470010160704700BF88ED00E0D4
:1001F000EFF30980BFF36F8F144B1A681EF0100FD6
:1002000008BF20ED108A20E9F04F106008B44FF0CD
:10021000500080F31188BFF34F8FBFF36F8F03F04F
:100220005BFE4FF0000080F3118808BC1968086875
:10023000B0E8F04F1EF0100F08BFB0EC108A80F34A
:100240000988BFF36F8F704700BF00BF70000020A8
:10025000EFF30580704700000648804706480047D6
:10026000FEE7FEE7FEE7FEE7FEE7FEE7FEE7FEE766
:10027000FEE7FEE7D5300008890100082DE9F05FB0
:100280000546002092469B46884606468146402405
:100290001BE0284641464746224600F041F85346B7
:1002A0005A46C01A914110D311461846224600F012
:1002B00028F82D1A67EB01084F462246012000213D
:1002C00000F01FF817EB00094E41201EA4F10104B5
:1002D000DFDC484631462A464346BDE8F09F40EA07
:1002E00001039B0703D009E008C9121F08C0042AB4
:1002F000FAD203E011F8013B00F8013B521EF9D29B
:100300007047202A04DB203A00FA02F100207047EF
:100310009140C2F1200320FA03F319439040704743
:10032000202A04DB203A21FA02F00021704721FA4A
:1003300002F3D040C2F120029140084319467047B1
:10034000064C074D06E0E06840F0010394E8070022
:1003500098471034AC42F6D3FFF71AFFD04200089A
:10036000F0420008454910B54A6822F440324A601C
:100370004A6843681A434A6001684A6822F48072F6
:100380004A6001684A68036942EA03224A600168D8
:100390004A6822F040724A6001684A6883681A43DA
:1003A0004A6001688A6822F400628A6001688A688B
:1003B000C3681A438A60816A6FF07062D142016833
:1003C0008A6822F070628A6001688A680CD0836A49
:1003D0001A438A6001688A6822F040528A60016884
:1003E0008A68C36A1A4301E022F040528A600168B9
:1003F0008A6822F002028A6001688A68836942EA98
:1004000043028A60016A002901684A680FD042F4F9
:1004100000624A6001684A6822F460424A600168EA
:100420004A68174C436A04EB43331A4301E022F451
:1004300000624A600168CA6A22F47002CA620168F6
:10044000CA6A838B0F4C04EB03531A43CA620168D8
:100450008A6822F400728A6001688A68036B42EA43
:1004600043228A6001688A6822F480628A60016897
:100470008A68406942EA8020886010BD00230140FC
:1004800000E0FFFF0000F0FF10B502F057FB02F0A4
:10049000E5FA02F0B5FA02F085FA02F0A3FC02F0E8
:1004A000C7FC02F0EBFC02F051FC02F075FC02F01C
:1004B0000BFD02F0CFF902F005FA02F03BFA02F070
:1004C0000DFC02F0D3FB174800F07EFF164800F049
:1004D0007BFF164800F030FB154800F02DFB154857
:1004E00000F02AFB04221449144802F039F9144898
:1004F0000068016821F0080101600A4800F06EF808
:10050000094800F06BF80221064800F073FB022155
:10051000054800F06FFBBDE810404FF47A7001F021
:10052000FDB80000BC090020E40900200C0A0020EE
:10053000540A00209C0A0020300D0020C80500202D
:10054000C8060020FEE70000014800F0CFBC000014
:10055000BC090020014800F0C9BC0000E4090020EB
:10056000044801884ABA04498A80408840BAC88051
:1005700070470000140000202C000020074801886C
:100580004ABA07494A82428852BA0A80828852BAD5
:100590004A8082790A72C07948727047140000203C
:1005A000420D002009480A4A0B4B018849BA09B29A
:1005B000516141884ABA07494A8002791206120CF1
:1005C0001A7040790006000C087070471400002073
:1005D000AC0C00202C0000201F00002000B58BB0C8
:1005E00000210122CDE9061203910892094A0091E7
:1005F000019102910491904200D105910549283161
:10060000884201D10E210591694600F06BFB0BB0C9
:1006100000BD0000BC090020C82003F034F803F03E
:1006200049FD09490020087000F014F8074C01202A
:1006300002F0EAFCB4F90C200548114600F066F817
:10064000052003F020F8F2E71C000020560D0020E2
:10065000E40900202DE9F0414FF47A742DED028B6E
:1006600042F210759FED238AB3EE041AB7EE080A22
:10067000F0EE480A23462A4603211F4802F0A0FC58
:100680001D489FED1E0AB3EE041A80ED1A0ADFED35
:100690001C0AB1EE000A23462A460321A0F5807009
:1006A00002F08EFC1448B0EE481AF0EE480A9FEDB6
:1006B000150A2346A2000321803802F081FC0E4E69
:1006C00000249FED118A80364FF4FA67F0EE480A55
:1006D00006EBC410B0EE601AB7EE080A3B462A4695
:1006E000032102F06DFC641C042CEFDBBDEC028BDB
:1006F000BDE8F08100000000C801002000001643A2
:100700000AD7233CCDCC4C3FCDCCCC3D30B40D4BA7
:10071000082440F2FF151C6100249C601D60DC6011
:10072000094B0D0A1D705970110A9970DA701C710D
:100730005C719C71DC7130BC0123034A014900F0FB
:100740006DBA0000180D0020340000200448006835
:10075000016821F001010160014800F069BE00005C
:100760004808002004480068016821F00101016088
:10077000014800F05DBE0000280700200448006822
:10078000016821F001010160014800F051BE000044
:10079000E807002004480068016821F001010160B9
:1007A000014800F045BE000088070020014800F025
:1007B0003FBE0000E40A002004480068016821F000
:1007C00001010160014800F033BE0000C8060020AE
:1007D00001681823CAB2103AB2FBF3F2054B6FF36B
:1007E0000901032A9B5CC36500D9091D8165084680
:1007F000704700008842000810B5014600208B6950
:100800008A6A4FF0C07453B1B3F5005F15D072B16E
:10081000012A0CD0022A0AD0032A09D104E01AB115
:10082000012A06D0022A03D1C96AC90100D50120D4
:1008300010BDC96AA142FAD010BD002AF7D0012A22
:10084000F2D0022AF3D0032AF3D010BD30B50468E9
:10085000256825F480252560046863608368402B43
:10086000036803D099600068C26030BD9A60006878
:10087000C16030BD7047022000F064BF042000F06A
:1008800061BF10B5202000F05DFFBDE810404020A2
:1008900000F058BF0748084902780A70C3788B7285
:1008A000FF2A05D1FE2B03D1B0F8010040BA8881A0
:1008B00070470000300D0020560D002078B5002450
:1008C000009490F83C20012A19D0012280F83C20A5
:1008D0000A6807230568092A13D9EE680A3A02EB69
:1008E000420293409E43EE600B788A680A3B03EB1A
:1008F00043039A400368DD682A43DA6010E002206F
:1009000078BD2E6902EB420293409E432E610B7824
:100910008A6803EB43039A4003681D692A431A61FE
:100920004A681F23072A13D205686E6B521E02EB1A
:10093000820293409E436E630B790A885B1E92B2DB
:1009400003EB83039A4003685D6B2A435A6327E0F5
:1009500005680D2A12D22E6BD21F02EB8202934041
:100960009E432E630B790A88DB1F92B203EB83034D
:100970009A4003681D6B2A431A6311E0EE6A0D3A30
:1009800002EB820293409E43EE620B790A880D3B94
:1009900092B203EB83039A400368DD6A2A43DA626A
:1009A000164B0568144A9D4206D10D68122D03D1DD
:1009B000556845F48005556005689D4218D10B685F
:1009C000102B01D0112B13D1536843F40003536053
:1009D000096810290CD10A490A4A0968B1FBF2F1E9
:1009E00001EB8101490000E0491E00910029FBD183
:1009F00080F83C40002078BD0023014000200140E9
:100A00004800002040420F0070B504004FF0000580
:100A100003D0206C002610B107E0012070BD666491
:100A200084F83C60204600F019F8206CC00610D411
:100A3000206C20F4885040F0020020642046FFF72C
:100A400091FC6664206C20F0020040F001002064FC
:100A500000E0012584F83C60284670BD70B506466C
:100A60002A4C036800252A4903202A4A86B0A3425B
:100A70002BD10B6843F480730B600968029501F475
:100A8000807105911E21CDE900106946104600F0E5
:100A900065FE224C2048C4E900050015A560C4E9A4
:100AA0000350400060618000A0614011C4E9070567
:100AB0002046656200F08CFD18B1D02118A002F02C
:100AC00090FDB463A66306B070BD194CA34209D172
:100AD0000B6843F400730B60096801F40071059121
:100AE00004210BE0134CA342EDD10B6843F4806367
:100AF0000B60096801F4806105910821CDE90010BF
:100B000002956946104600F029FEDCE7002001400E
:100B1000443802400000024010640240E40A002011
:100B20002E2E2F5372632F6164632E63000000002A
:100B3000002101400022014018B50021009190F8E9
:100B40003C20012A07D0012280F83C2002689368EB
:100B5000DB0702D011E0022018BD936843F00103C7
:100B60009360204A204B1268B2FBF3F202EB420280
:100B700000E0521E0092002AFBD102689368DB0756
:100B80002DD0036C40F20164A34343F480730364EB
:100B900053685B0505D5036C23F4005343F480537D
:100BA0000364036CDB0404D5436C23F00603436445
:100BB00000E0416480F83C100C496FF022031360A0
:100BC00049680068C90602D00949884207D181688E
:100BD00011F0405F03D1816841F0804181600020C5
:100BE00018BD00004800002040420F0000230140D3
:100BF0000020014090F82020012A09D090F8202000
:100C0000022A05D0416A41F48021416201207047E7
:100C1000006842690A43426100207047F0B590F8CD
:100C20002040012C07D090F82040022C03D0416ACC
:100C300041F4802153E00468A5686D0105D4A568DE
:100C40002D0102D4A568ED0046D5A4680125C4F3A2
:100C50000164A5401D608D684FF4C0739DB1CE68DE
:100C600035434E6845EAC605066803EB0417F5519F
:100C70004FF4C275076805EB04150E697E51097DB6
:100C8000012905D009E00E88CD6845EA4655EBE715
:100C900001684E5946F480764E511179D2F80550CC
:100CA0004FF4C67641EA0521056806EB0416A95102
:100CB0001178D2F801204FF4C47541EA022102688C
:100CC00005EB04155151006803EB0411425842F042
:100CD000010242500020F0BD416A41F4001141621E
:100CE0000120F0BD10B590F82020012A09D090F81D
:100CF0002020022A05D0416A41F48021416201206E
:100D000010BD3A48D0F8002242F00102C0F800229B
:100D1000D0F8002222F47C52C0F80022D0F8002241
:100D20004B6A42EA0322C0F800220B7D01229A405E
:100D3000D0F81C329343C0F81C32CB69B3B9D0F859
:100D40000C329343C0F80C328C894B6864F31F4318
:100D50004C6900EBC404C4F840320C890B6864F39E
:100D60001F434C6900EBC404C4F84432CB69012B27
:100D700016D1D0F80C321343C0F80C320C884B68F3
:100D800064F31F434C6900EBC404C4F840320C897F
:100D9000CB6864F31F434C6900EBC404C4F84432CD
:100DA0008B69002BD0F804320ED01343C0F8043204
:100DB0000B69002BD0F8143208D01343C0F814325A
:100DC000096A012904D008E09343EFE79343F5E76C
:100DD000D0F81C121143C0F81C12D0F8001221F0F8
:100DE0000101C0F80012002010BD000000640040A6
:100DF000704730B590F82040012C07D090F8204083
:100E0000022C03D0416A41F4802109E011B101298B
:100E100009D00CE00468E46807E0416A41F400117D
:100E20004162012030BD04682469A407F5D04FF465
:100E3000D874056804EB01142D5915F0040595606C
:100E400005682D5942D0ED08556005682C59C4F34A
:100E50004004D4604FF4DA74056804EB01142D5992
:100E600005F00F05156105682D59C5F30725956136
:100E700005682C59240C54614FF4DC72046802EBB1
:100E80000112A4581C700468A458240A5C700468F9
:100E9000A458240C9C700468A258120EDA704FF407
:100EA000DE72046802EB0112A4581C710468A45895
:100EB000240A5C710468A458240C9C710468A2582C
:100EC000120EDA7129B1012909D00DE06D0D1560FE
:100ED000BBE70068C16841F02001C16004E0006820
:100EE000016941F020010161002030BD2DE9F05F72
:100EF0000546006800244669D0F804908768D0F859
:100F00000CB0D0F810A0D0F81880F10748D0F9073D
:100F100014D001218160B80703D5284600F081FA7A
:100F20000CE0780702D54FF4006407E0380702D5DB
:100F30004FF4805402E0284600F072FAF80516D506
:100F400029684FF480708860B80503D5284600F002
:100F50006AFA0CE0780502D544F4005407E038053D
:100F600002D544F4804402E0284600F05BFAF8031E
:100F700016D529684FF480308860B80303D5284619
:100F800000F053FA0CE0780302D544F4004407E083
:100F9000380302D544F4803402E0284600F044FAD5
:100FA000300707D55FEACB6004D52968102044F4E8
:100FB0000074C86070074FF0080707D55FEA0B7030
:100FC00004D52868C760284600F07CF9B00706D52C
:100FD0002868C068800702D0284600F075F97006BE
:100FE00007D55FEACA6004D52968102044F48064FC
:100FF0000861B00607D55FEA0A7004D52868076162
:10100000284600F0DDF9F00606D52868006980075B
:1010100002D0284600F0D5F9B00308D55FEAC960D0
:1010200005D5296810204860284600F0CBF9F00368
:1010300007D55FEA097004D528684760284600F0A4
:10104000F5F9300446D55FEA497040D5F00504D57E
:101050005FEAC87001D044F00104B00504D55FEA2E
:10106000887001D544F00204700504D55FEA487029
:1010700001D544F00404300529D518F0700F26D0AE
:1010800008F07000402815D006DC102809D0202870
:101090000AD0302816D10AE050280ED0602811D18D
:1010A0000EE044F008040DE044F010040AE044F0BF
:1010B000200407E044F0400404E044F0800401E030
:1010C00044F480742868816921F070018161296885
:1010D00004204860002C05D0686A204368622846D6
:1010E000FFF786FEBDE8F09F70B5040003D094F8CA
:1010F000200010B104E0012070BD204600F082F80D
:101100002068016821F00201016000F0FFFB054644
:10111000052604E000F0FAFB401B0A2811D82068DD
:1011200040688007F6D42068016841F00101016041
:1011300000F0ECFB05460BE000F0E8FB401B0A2842
:1011400006D9606A40F40030606284F82060D2E71B
:1011500020684068C007EFD0207E01282068016821
:101160003DD021F080010160607E01282068016887
:1011700038D021F040010160A07E0128206801687C
:1011800033D021F020010160E07E01282068016851
:101190002ED041F010010160207F012820680168F5
:1011A00029D021F008010160607F012820680168D2
:1011B00024D021F004010160D4E902010843D4E9FC
:1011C0000412114308436168491E08432168C8613D
:1011D00000206062012084F82000002070BD41F0F2
:1011E0008001C0E741F04001C5E741F02001CAE7B6
:1011F00021F01001CFE741F00801D4E741F00401EC
:10120000D9E70000F0B52A4B0768DFF8A0C01868DE
:1012100003220224092527490026401C87B0674580
:1012200019D11860012807D1086840F000700860E3
:10123000086800F0007005908DE85400CDE90325A2
:1012400069461D4800F08AFA00220521142000F0AA
:101250000DFC142026E0DFF864C0674524D10F6838
:1012600047F080670F600F68012807F080670597D7
:10127000186007D1086840F000700860086800F046
:10128000007005904FF440508DE85100CDE90325E2
:1012900069460B4800F062FA00220521402000F068
:1012A000E5FB402000F0D6FB07B0F0BD0064004035
:1012B0002800002040380240000C02400068004036
:1012C000000402407047000070B537493326374D9F
:1012D000374C884239D104F108032A460021FFF730
:1012E00088FD2868B0F5887F1AD0A0F5807019387D
:1012F0001FD007280CD0E9281AD1052001F06CFE78
:101300002C48C16A4A1CC26232291AD8264941E0D7
:10131000042001F061FEBDE870402348FFF742B9A8
:10132000042001F059FE2048FFF728F90120207021
:1013300070BD042001F050FEBDE870401A48FFF770
:101340000FB9C66218491B482AE01B498842EFD1F1
:10135000174B164A08330021FFF74BFD2868A0F50C
:101360000070013805D0012803D0022801D00328DD
:1013700001D101F031FE2878401EC0B26070C0EB90
:1013800000110E4800EB8100C16A4A1CC26232297A
:1013900004D80949BDE8704002F058B90649C66250
:1013A000BDE8704002F02EB9BC090020AC0000205E
:1013B0000C000020700C0020E4090020800B0020AD
:1013C000704770477047000070B5044690F82000E1
:1013D000012804D0606A40F40020606218E0022016
:1013E00084F820002068016821F00101016000F00C
:1013F0008DFA05460EE000BF00F088FA401B0A286F
:1014000008D9606A40F400306062052084F820004A
:10141000012070BD20684068C007EDD1606270BDDA
:1014200070477047704770477047704770470000BB
:101430002DE9F84304464FF00009CDF800906348C9
:101440004FF41651A56D0068B0FBF1F72E6894F8C3
:101450005C10082000FA01F131420FD021680A68BF
:1014600052070BD50A6822F004020A6094F85C1057
:101470008840A860606D40F00100606594F85C10E1
:101480004FF0010808FA01F0304208D0216849699C
:10149000090604D5A860606D40F00200606594F80C
:1014A0005C1004208840304208D021680968890710
:1014B00004D5A860606D40F00400606594F85C108D
:1014C00010208840304218D021680968090714D5D7
:1014D000A86020680168490304D50068000308D5A6
:1014E000A16C07E00168C90503D4016821F0080177
:1014F0000160216C09B12046884794F85C102020D7
:101500008840304231D021680968C9062DD5A860CD
:1015100094F8350005282068016806D0490347D5AE
:10152000006800031DD4616C1CE021F0160101600D
:101530002068416921F080014161206C08B9A06CEC
:1015400020B12068016821F00801016094F85C1066
:101550003F208840A86084F8349084F83580216D5D
:101560001FE0E16B09B120468847606D00282BD051
:10157000606DC00714D0052084F83500206801682C
:1015800021F0010101600098401C0090B84203D88E
:1015900020680068C007F6D184F8349084F835805C
:1015A000E16C002910D001B02046BDE8F0430847A7
:1015B0000168C905D5D4016821F01001016084F8E3
:1015C000349084F83580CCE7BDE8F88348000020EB
:1015D0002DE9F041044600F099F906465CB100257A
:1015E00084F83450022084F835002068016821F026
:1015F000010101600DE00120BDE8F08100F086F9F5
:10160000801B052805D920206065032084F835005B
:10161000F2E720680068C007F0D12268116820480E
:101620000140D4E901031843D4E903363343184396
:1016300063691843A3691843E3691843236A18438D
:101640000843616A042903D1D4E90B131943084301
:10165000106020684069666A20F0070130460E433A
:10166000012704280CD1A06A0643E06A40B1204655
:10167000FFF7C2F820B14020606584F83570BAE702
:10168000206846612046FFF7A3F894F85C203F21CC
:1016900091408160656584F835700020ACE70000FA
:1016A0003F8010F02DE9F0410446866D90F834003B
:1016B000002501280DD0012084F8340094F83570FD
:1016C0000020012F07D084F8340002252846BDE809
:1016D000F0810220FBE7022784F835706065204620
:1016E000FFF7B4F894F85C103F208840B0602068A1
:1016F000016841F0160101602068416941F08001F4
:101700004161206C20B12068016841F0080101604E
:101710002068016841F001010160D7E770B5044617
:1017200000F0F4F80546601C02D004480078044438
:1017300000F0ECF8401BA042FAD370BD3C00002042
:1017400070470000044910B50A68024202D00860E0
:10175000FFF7F6FF10BD0000143C01402DE9F84FE3
:10176000DFF87CB100224FF001084FF0030A4FF080
:101770000F090BF1040E00BF0B6808FA02F42340B6
:10178000A3426ED14D68022D01D0122D0ED1D50885
:1017900000EB850CDCF820505607F70E09FA07F627
:1017A000B5430E69BE402E43CCF820600668550054
:1017B0000F790AFA05FC07F0030726EA0C06AF408A
:1017C000374307604E68012E05D0022E03D0112E3C
:1017D00001D0122E0ED18668CF6826EA0C06AF40E3
:1017E000374387604668A6430C79C4F300149440DD
:1017F00034434460C6688C6826EA0C06AC40344327
:10180000C4604C68E40065D5364C256845F48045D5
:101810002560246822F0030504F480440094324CCF
:101820002E19D6F8084895072F0F09FA07F5AC438B
:101830002E4DA84201D1002524E02D4DA84201D112
:1018400001251FE02B4DA84201D102251AE02A4DA7
:10185000A84201D1032515E0284DA84202D1042554
:1018600010E037E0264DA84201D105250AE0254DBC
:10187000A84201D1062505E0234DA84201D1072544
:1018800000E00825BD402543C6F80858DBF80040B5
:101890005D464E689C43F60300D51C432C60DEF881
:1018A000004075464E689C43B60300D51C432C602F
:1018B0000B4D08352C684E689C43F60200D51C433E
:1018C0002C60074D0C352C684E689C43B60200D541
:1018D0001C432C60521C102AFFF44EAFBDE8F88F59
:1018E000003C01404438024000300140000002400A
:1018F0000004024000080240000C024000100240B8
:101900000014024000180240001C02400148806898
:10191000704700003C0000200248816802781144B2
:10192000816070473C0000200B4810B5016841F40D
:1019300000710160016841F480610160016841F457
:1019400080710160032000F0B1F8002000F006F87B
:1019500000F03EF8002010BD003C024010B50146EA
:1019600088B00022192000F081F8192000F072F8E8
:1019700013480024016841F001010160006805A9D5
:1019800000F001000690684600F03AF900F06EF9A8
:101990000C494000B0FBF1F10C480B4A491E0260B3
:1019A00040F2E732C0E90324C0E9011400F078FBFB
:1019B00010B1012008B010BD044800F0C9FBF9E7E0
:1019C0004438024040420F0000000140440B002018
:1019D0001F4808B5016841F480410160006800F4C7
:1019E000804000901A48001F016841F0805101605A
:1019F000006800F080500090032000F057F80022AB
:101A000011466FF00B0000F031F8002211466FF024
:101A10000A0000F02BF8002211466FF0090000F0D8
:101A200025F800221146501F00F020F80022114630
:101A3000101F00F01BF800220F21901E00F016F876
:101A400000220F21BDE80840501E00F00FB8000032
:101A50004438024000F01F020121914040098000FB
:101A600000F1E020C0F8001170470000F0B40E4B08
:101A70001B680C46C3F30223C3F10705042D00D9EC
:101A80000425191D072901D2002300E0DB1E0126D1
:101A900006FA05F1491E214099409E40761E1640E7
:101AA0003143F0BC01F07BBA0CED00E0064900F0D8
:101AB000070208684FF6FF03184040EA0220034A75
:101AC00010430860704700000CED00E00000FA05CC
:101AD0002DE9F0470E46050065D0DFF81481D8F8EF
:101AE0000000F7B200F00F00B04207D288F8007093
:101AF000D8F8000000F00F00B04254D128683D4CE7
:101B0000810712D5400703D5206840F4E0502060DB
:101B10002878000703D5206840F4604020602068E2
:101B2000A96820F0F000084320602878C0072DD075
:101B3000304968680839012812D0022813D00328D8
:101B400011D00968890700292DDA216821F00301E5
:101B500001432160FFF7DAFE814641F2883A0EE048
:101B600009688903EFE709688901ECE7FFF7CEFE12
:101B7000A0EB0901514502D90320BDE8F087206898
:101B8000696800F00C00B0EB810FEFD1D8F80010BD
:101B9000404601F00F01B14207D90770006800F01C
:101BA0000F00B04201D00120E7E72878400705D5B3
:101BB0002068E96820F4E050084320602878000796
:101BC00006D52068296920F4604040EAC100206001
:101BD00000F05CF82168084AC1F30311515CC84069
:101BE000064908600020FFF7B9FE0020C5E70000A5
:101BF000003C0240083802409042000848000020A3
:101C00000F2202600C4A136803F003034360136859
:101C100003F0F0038360136803F4E053C3601268B9
:101C20004FF4E05303EAD20202610448006800F076
:101C30000F0008607047000008380240003C024076
:101C4000014800687047000048000020044805492A
:101C500000680968044AC1F38221515CC84070479A
:101C60004800002008380240A04200080448054906
:101C700000680968044AC1F34231515CC8407047AA
:101C80004800002008380240A0420008154810B55E
:101C9000006810F00C02144813D01449042A0FD025
:101CA000082A0ED10F4C241F2268236802F03F023D
:101CB0005B0207D52068C0F38810A0FB010106E095
:101CC000084610BD2168C1F38811A1FB0001002363
:101CD000FEF7D4FA2168C1F30141491C4900B0FB69
:101CE000F1F010BD083802400024F40000366E0107
:101CF0002DE9F84F050076D02878DFF8F8B2BE4C11
:101D0000C00749D0DBF800105846C1F38101012912
:101D100008D00068C0F3810002280AD1201D0068A5
:101D2000400206D52068800336D568680028E2D0D6
:101D300032E06868B0F5803F10D0B0F5A02F206881
:101D400010D020F480302060206820F480202060B3
:101D50006868A0B1FFF7DAFD06460CE0206840F4A1
:101D60008030F4E740F480202060F7E7FFF7CEFDF5
:101D7000801B642873D820688003F7D50CE0FFF738
:101D8000C5FD064605E000BFFFF7C0FD801B6428C7
:101D9000F0D820688003F7D42878DFF860828007C5
:101DA0004FF000093ED5DBF80010584611F00C0F3B
:101DB00009D00068C0F3810002280BD18D48001FB4
:101DC0000068400206D42068800715D5E86801281D
:101DD00009D111E0E868B8B10120C8F80000FFF7A8
:101DE00095FD064605E002E1FFF790FD801B022805
:101DF000C0D820688007F7D52068296920F0F8004E
:101E000040EAC10020600DE0C8F80090FFF77EFDB9
:101E1000064604E0FFF77AFD801B02281FD82068E1
:101E20008007F7D42878000722D5724E7448696974
:101E30006C3671B101210160FFF768FD074604E0CF
:101E4000FFF764FDC01B022809D830688007F7D56A
:101E50000EE0C0F80090FFF759FD074605E083E06B
:101E6000FFF754FDC01B02287ED830688007F7D4E6
:101E70002878400768D5DFF87CA100270AF1380AE6
:101E8000DAF80000C0000BD4DAF8001041F08051FD
:101E9000CAF80010DAF80000012700F08050009026
:101EA000584E3068C00510D4306840F480703060FF
:101EB000FFF72CFD009005E0FFF728FD0099401A80
:101EC000022851D83068C005F6D54A4EA868683651
:101ED00001280FD00528306810D020F001003060B4
:101EE000306820F004003060A868B8B1FFF70EFD3C
:101EF00000900FE0306840F00100F4E740F004008B
:101F00003060F7E7FFF702FD0099411A41F288308F
:101F1000814264D830688007F4D50EE0FFF7F6FC04
:101F2000009007E0FFF7F2FC0099411A41F2883077
:101F3000814254D830688007F4D42FB1DAF8001009
:101F400021F08051CAF80010A869C0B3DBF8001076
:101F5000C1F3810102294AD00228484607D0C8F8B7
:101F60006000FFF7D3FC00E039E005463AE0474661
:101F7000C8F86000FFF7CAFC064604E0FFF7C6FC9D
:101F8000801B02282BD820688001F7D4D5E90701EF
:101F90000843A96A1C4A490802EB01416A6A41EAFE
:101FA0008211084395F82C1040EA01611148001F86
:101FB000016001203866FFF7A9FC054605E014E042
:101FC000FFF7A4FC401B022809D820688001F7D540
:101FD0000BE000BFFFF79AFC401B022802D9032048
:101FE000BDE8F88F20688001F4D40020F8E70120D4
:101FF000F6E700000838024000380240000047427F
:10200000800E4742007000400000FFFF4FF0E021CB
:102010000428086903D020F004000861704740F0EC
:102020000400FAE710B5401EB0F1807F01D3012013
:1020300010BD4FF0E02460610F21601700F0AFFF8A
:102040000020A06107202061002010BD704770476C
:1020500030B590F83820012A20D0012280F83820AD
:10206000022380F8393003685C6824F070045C60F7
:1020700003685C680D682C435C6003689C6824F00E
:1020800080049C6003689C6849680C439C6080F8ED
:102090003920002180F83810084630BD022030BDBC
:1020A00010B5040003D094F8390010B107E0012006
:1020B00010BD002084F83800204600F00DF8022002
:1020C00084F83900211D206801F040F8012084F8CF
:1020D0003900002010BD000008B501681948B1F1B1
:1020E000804F14D0184A914220D1016841F010016C
:1020F00001600068002200F01000009002213620EC
:10210000FFF7B4FC3620BDE80840FFF7A3BC016828
:1021100041F0010101600068002200F00100009020
:1021200005211C20FFF7A2FC1C20ECE7074A914286
:1021300007D1016841F004010160006800F004006B
:10214000009008BD403802400010004000080040E8
:102150000168CA6842F00102CA600068016841F083
:10216000010101600020704770B5044690F8380006
:10217000012817D0012584F83850022084F839004E
:102180002068826822F0770222F47F428260086829
:10219000502837D00DDC202859D005DC88B3102812
:1021A00041D151E0022070BD302853D040283AD1AF
:1021B0003FE060282ED070280BD0B0F5805F03D0B0
:1021C000B0F5005F2FD110E02068816821F0070191
:1021D00015E0CB68D1E90121206801F017F82168EA
:1021E000886840F0770088601DE0CB68D1E9012164
:1021F000206801F00BF82068816841F4804181601B
:1022000011E01EE0CA684968206801F011F8502109
:10221000206806E0CA684968206801F01AF8602161
:10222000206800F0FDFF84F83950002084F8380061
:1022300070BDCA684968206800F0FAFF4021206834
:10224000EFE700212068ECE710212068E9E7202172
:102250002068E6E730212068E3E7704770B5044660
:10226000006801694FF00005C943890715D4C168AA
:10227000C943890711D4E91E016101202076206835
:1022800080698007204602D0FFF7E7FF04E000F0F6
:1022900098F8204600F096F8257620680169C94331
:1022A000490717D4C168C943490713D46FF0040123
:1022B0000161022020762068806910F4407F20466A
:1022C00002D0FFF7CAFF04E000F07BF8204600F0E0
:1022D00079F8257620680169C943090716D4C168D1
:1022E000C943090712D46FF0080101610420207668
:1022F0002068C0698007204602D0FFF7AEFF04E0E7
:1023000000F05FF8204600F05DF82576206801694E
:10231000C943C90617D4C168C943C90613D46FF0AD
:1023200010010161082020762068C06910F4407F08
:10233000204602D0FFF791FF04E000F042F820466B
:1023400000F040F8257620680169C943C90708D123
:10235000C168C943C90704D1891E0161204600F044
:1023600033F820680169C943090609D4C168C94323
:10237000090605D46FF0800101612046FFF766FE73
:1023800020680169C943490609D4C168C94349069F
:1023900005D46FF040010161204600F029F8206863
:1023A0000169C94389060BD4C168C943890607D4AA
:1023B0006FF0200101612046BDE87040FFF747BE85
:1023C00070BD70477047000010B5044600680649AC
:1023D000884201D1FFF7A0FA0448844203D1BDE846
:1023E000104000F009BE10BD00000140800900202F
:1023F00070470000084A0168914202D0074A9142A2
:1024000008D14A6942F001024A610068C16841F49A
:102410009071C160704700000050004000440040CF
:1024200070B5040004D094F83900002510B106E01E
:10243000012070BD84F83850204600F023F8242095
:1024400084F839002068C16821F40051C160204639
:1024500000F070FF2068016921F49041016120685B
:10246000416921F02A0141612068C16841F40051AD
:10247000C160E563202084F8390084F83A00002028
:1024800070BD00002DE9F04F0546D0F800C0DFF820
:10249000848202200024A04A012603210823DFF8B9
:1024A0007CE2470287B04FF0006A4FF48079C44560
:1024B0002BD1D2F800C04CF4002CC2F800C0126836
:1024C000029602F400220592CDE903138A02CDE9B7
:1024D000002069467046FFF741F9924E90483060FF
:1024E000C6E901A4C6E903477461C6E90649346236
:1024F00030467462FFF76CF810B14FF4867105E155
:102500006E63B56307B0BDE8F08FDFF81C82C44589
:1025100039D1D2F800C04CF4801CC2F800C0126857
:10252000804602F4801205924FF480520092CDE969
:1025300001000320CDE903039B4669467046FFF77F
:102540000DF90420CDE900080320CDE902606946B9
:10255000CDF810B07548FFF701F9724E704860363B
:1025600030383060C6E901A4C6E903477461C6E9A2
:102570000649346230467462FFF72AF80028BFD05B
:1025800040F23B11C2E0DFF8A881DFF88CE14FF0A8
:10259000070B0EF1040EC44529D1DEF8003043F0DC
:1025A0001003CEF80030DEF80020CDE9026102F021
:1025B00010020592C022CDE90020CDF810B0694686
:1025C0005C48FFF7CBF85D4E5B483060C6E901A47C
:1025D000C6E903477461C6E906493462304674624D
:1025E000FEF7F6FF00288BD04FF4B0718EE0DFF8D5
:1025F0005081C44528D1136843F400331360126836
:10260000CDE9026102F4003205926022CDE900209A
:10261000CDF810B069464548FFF7A0F8414E404854
:10262000603E48303060C6E901A4C6E903477461E2
:10263000C6E90649346230467462FEF7C9FF0028D5
:102640009DD040F28B1161E0DFF8F880C4452BD1BA
:10265000136843F4802313601268CDE9026102F429
:10266000802205924FF44062CDE90020CDF810B0F1
:1026700069463048FFF772F8304E294860361838FE
:102680003060C6E901A4C6E903477461C6E906499A
:102690004FF40030C6E908043046FEF799FF0028E1
:1026A000A1D04FF4D97131E0274A94457FF42AAF85
:1026B000DEF800C04CF0200CCEF800C0DEF80020A0
:1026C000029602F020020592CDE903134FF4C06296
:1026D000CDE9002069461D48FFF740F8114E164825
:1026E000C036183830608005C6E90104C6E90347E2
:1026F0007461C6E906494FF40030C6E90804304663
:10270000FEF766FF00289BD040F2D91110A000F020
:1027100068FFF5E6004C00404038024000080240E7
:1027200040600240E807002000500040000C0240DA
:10273000001001400004024040640240C80600202E
:1027400000440040004800400014014000180240CE
:102750002E2E2F5372632F75736172742E630000D7
:10276000F8B5044690F83A0020283CD1C1B3BAB37A
:1027700094F83800012836D0012084F83800A1628E
:10278000A2850025E563222084F83A00636B174890
:10279000D863636B16481864636B1648D864606B23
:1027A000134605650846666B216802463046091DDA
:1027B000FEF778FF206801684168009184F838507E
:1027C000C16841F48071C1602068416941F0010134
:1027D00041612068416941F0400141610020F8BD3C
:1027E000FFE70120FBE70220F9E70000C132000803
:1027F000FD3200087732000810B500680F498842A2
:102800001AD10F480421026851600068016841F044
:10281000010101600C480B49006801F0C5FA094844
:10282000001F4068002807D008494FF0805008601A
:10283000BFF34F8FBFF36F8F10BD0000001001403A
:10284000C8060020100000200800002004ED00E071
:102850007047FEE77FB51548134901250160056102
:102860004FF4803100248561C0E9011410490462ED
:10287000C0E90A14C460C56145610463FEF7C4F889
:1028800018B156210BA000F0ACFE0095CDE9015423
:1028900069460648FEF712F8002803D0602105A01B
:1028A00000F09FFE7FBD0000002001400C0A0020C8
:1028B0000100000F2E2E2F5372632F6164632E636D
:1028C000000000007FB515481349002401604FF453
:1028D0008031C0E901140461846111490462C0E9D6
:1028E0000A140125C460C56145610463FEF78CF8D4
:1028F00018B179210BA000F074FE0220CDE900058B
:10290000694602940548FDF7D9FF002803D08321CA
:1029100004A000F066FE7FBD00210140540A0020A3
:102920000100000F2E2E2F5372632F6164632E63FC
:10293000000000007FB515481349002401604FF4E2
:102940008031C0E901140461846111490462C0E965
:102950000A140125C460C56145610463FEF754F89B
:1029600018B19C210BA000F03CFE0320CDE900052E
:10297000694602940548FDF7A1FF002803D0A6216F
:1029800004A000F02EFE7FBD002201409C0A002022
:102990000100000F2E2E2F5372632F6164632E638C
:1029A00000000000114810B50F4901600621416088
:1029B00000214FF480328160C0E903124FF44012CD
:1029C00042610176012242768276C17601774177B3
:1029D000FEF78AFB002805D0BDE81040502104A076
:1029E00000F0FFBD10BD000000640040BC090020E5
:1029F0002E2E2F5372632F63616E2E630000000032
:102A0000114810B50F4901600621416000214FF4C3
:102A100080328160C0E903124FF4401242610176B6
:102A2000012242768276C17601774177FEF75CFB20
:102A3000002805D0BDE81040662104A000F0D1BDFB
:102A400010BD000000680040E40900202E2E2F5326
:102A500072632F63616E2E6300000000214808B589
:102A6000016841F400110160016801F40011009156
:102A7000016841F4800101600068002200F48000D8
:102A8000009007211020FEF7F1FF1020FEF7E2FF73
:102A9000002206210C20FEF7E9FF0C20FEF7DAFFEA
:102AA000002206210D20FEF7E1FF0D20FEF7D2FFE8
:102AB000002207210B20FEF7D9FF0B20FEF7CAFFEB
:102AC000002207213920FEF7D1FF3920FEF7C2FF8F
:102AD000002205213A20FEF7C9FFBDE808403A2050
:102AE000FEF7B8BF3038024010B590B0142211493B
:102AF0006846FDF7F4FB0021684600F0DAFD0E4C55
:102B00000C4914222060143105A8FDF7E8FB0021D0
:102B100005A800F0CEFD07496060142228310AA8FC
:102B2000FDF7DDFB00210AA800F0C3FDA06010B096
:102B300010BD00004C4200080000002030B54548A0
:102B400087B00025016841F020010160016801F0B3
:102B500020010591016841F080010160016801F0E8
:102B600080010591016841F004010160016801F0F4
:102B700004010591016841F001010160016801F063
:102B800001010591016841F002010160016801F055
:102B900002010591016841F010010160016801F036
:102BA00010010591016841F008010160016801F020
:102BB00008010591016841F04001016000680124AD
:102BC00000F04000059041F67F00CDE90004694621
:102BD0002148CDE90245FEF7C1FD44F20700CDE9E9
:102BE000000469461D480294FEF7B8FD4FF44040CA
:102BF000CDE9000469461A480294FEF7AFFD0620AD
:102C0000CDE90005694602941648FEF7A7FD60204D
:102C1000CDE90005694602941348FEF79FFD0022A6
:102C200005210720FEF722FF0720FEF713FF0022F1
:102C300005210820FEF71AFF0820FEF70BFF0022EF
:102C400005211720FEF712FF1720FEF703FF07B03C
:102C500030BD000030380240001402400004024041
:102C600000100240000802400000024010B5164863
:102C700086B04FF08041016053210024C0E9011467
:102C80000121C0E90314FFF70BFA18B149210FA085
:102C900000F0A7FC4FF48050009069460A48FFF707
:102CA00063FA18B14F2109A000F09BFC049404A919
:102CB00005480594FFF7CCF9002803D0562103A05E
:102CC00000F08FFC06B010BD080900202E2E2F53F7
:102CD00072632F74696D2E630000000010B51648F2
:102CE00086B014490024C0E900148460C460046103
:102CF000FFF7D6F918B1752110A000F072FC4FF45F
:102D00008050009069460C48FFF72EFA18B17B21DD
:102D10000AA000F066FC049404A907480594FFF794
:102D200097F9002803D0822104A000F05AFC06B0D5
:102D300010BD000000080040440900202E2E2F5333
:102D400072632F74696D2E63000000000D4810B58A
:102D50000B4901604FF4E1314160002181600C2298
:102D6000C160C0E904128161C161FFF759FB00280D
:102D700005D0BDE81040852103A000F032BC10BD95
:102D8000004C0040480500202E2E2F5372632F75F3
:102D9000736172742E6300000D4810B50B49016019
:102DA0004FF4E1314160002181600C22C160C0E933
:102DB00004128161C161FFF733FB002805D0BDE833
:102DC0001040972103A000F00CBC10BD0050004043
:102DD000880500202E2E2F5372632F757361727435
:102DE0002E6300000D4810B50B4901604FF4E1312E
:102DF0004160002181600C22C160C0E90412816140
:102E0000C161FFF70DFB002805D0BDE81040AA21E5
:102E100003A000F0E6BB10BD00100140C805002073
:102E20002E2E2F5372632F75736172742E63000000
:102E30000D4810B50B4901604FF4E13141600021AC
:102E400081600C22C160C0E904128161C161FFF799
:102E5000E7FA002805D0BDE81040BD2103A000F02E
:102E6000C0BB10BD00440040080600202E2E2F538A
:102E700072632F75736172742E6300000D4810B574
:102E80000B4901604FF4E1314160002181600C2267
:102E9000C160C0E904128161C161FFF7C1FA002875
:102EA00005D0BDE81040D02103A000F09ABB10BDB2
:102EB00000480040480600202E2E2F5372632F75C5
:102EC000736172742E6300000D4810B50B490160E8
:102ED0004FF4E1314160002181600C22C160C0E902
:102EE00004128161C161FFF79BFA002805D0BDE89B
:102EF0001040E32103A000F074BB10BD001401409A
:102F0000880600202E2E2F5372632F757361727402
:102F10002E630000FEE700000A48002181718180D5
:102F2000418000F011F84FF0FF3400BF01F0C2F80B
:102F30002146012000F0FEFD0128F7D1FDF7AAFC93
:102F4000F4E70000560D002070B541F288342DEDF5
:102F5000028B41F270759FED0F8AB7EE001AB7EE43
:102F6000000AF0EE480A23462A4603210A4800F0E8
:102F700027F8F0EE480ABDEC028B23462A46BDE84E
:102F8000704005480321B7EE001AB7EE000A803002
:102F900000F016B80AD7233C480400207047090700
:102FA000090E002806DA00F00F0000F1E02080F89A
:102FB000141D704700F1E02080F8001470470000F5
:102FC00030B4034C8467034CC46730BC00F088BB4A
:102FD000E1360008EF36000810B50446FEF796FC0F
:102FE00000EE100A0348B8EE400A00EB840080EDC2
:102FF000000A10BD780D002002488168491C8160DC
:1030000070470000640D002010B50446FEF77EFCFA
:1030100000EE100A0348B8EE400A00EB840080ED91
:10302000000A10BD900D0020012000F02CFBFBE7F2
:1030300000F035BB30B5254893B00025016841F05C
:1030400080510160006800F08050119020480168B4
:1030500041F4804101600068022400F48040119036
:1030600001200090000401908001CDE90640182065
:1030700008904FF4A870CDE9090404200B9068462D
:10308000FEF736FE00B1FEE70CA90F2081E8310003
:103090004FF4A0500F904FF48050109005210CA8D1
:1030A000FEF716FD00B1FEE7FEF7CAFD4FF47A7198
:1030B000B0FBF1F0FEF7B6FF0420FEF7A7FF0022F9
:1030C0000F21501EFEF7D2FC13B030BD4038024035
:1030D000007000401048016841F4700101600F4821
:1030E000016841F0010101600C4A002108321160C1
:1030F00002680B4B1A400260031D0A4A1A600268FC
:1031000022F48022026005480C3001600249580612
:10311000803908607047000088ED00E00038024008
:10312000FFFFF6FE103000240148FFF797B80000BB
:10313000440B00200148FFF791B800000809002067
:103140000148FFF78BB8000080090020F0B5026845
:10315000234B244D244E254F254C4FF0804C984254
:1031600009D0604507D0A84205D0B04203D0B8428C
:1031700001D0A04204D122F0700E4A6842EA0E0249
:1031800098421BD0604519D0A84217D0B04215D044
:10319000B84213D0A04211D0164DA8420ED0164D01
:1031A000A8420BD0154DA84208D0154DA84205D015
:1031B000144DA84202D0144DA84203D122F4407508
:1031C000CA682A4302608A68C2620A6882629842B8
:1031D00001D0A04201D10969016301214161F0BD23
:1031E000000001400004004000080040000C0040C6
:1031F00000040140004001400044014000480140FB
:1032000000180040001C00400020004010B58468F9
:1032100042EA032224F47F440A432243826010BD21
:10322000826822F070020A4342F007018160704711
:1032300010B5036A046A24F001040462846924F06E
:10324000F00444EA021423F00A020A438461026291
:1032500010BD10B5036A23F0100303628369046A8A
:1032600023F4704343EA023224F0A00343EA01113D
:103270008261016210BD70B5846B2068406994F86A
:103280003910C0F3C0100025212904D118B1E584FC
:10329000204600F046F82068406994F83A10C0F3E0
:1032A0008010222904D118B1E585204600F02BF8C2
:1032B000E06B40F01000E0632046FFF79BF870BD24
:1032C00010B50146806B09680968C90513D400214F
:1032D000C1850168CA6822F48072CA6001684A69BF
:1032E00022F001024A6101684A6922F040024A6103
:1032F000202180F83A10FFF77FFA10BD10B5806BDF
:10330000FFF7A6FA10BD0168CA6822F49072CA607D
:1033100001684A6922F001024A61202180F83A10CE
:1033200070470168CA6822F0C002CA60202180F894
:10333000391070472DE9F04104460068016921F415
:103340004052E168114301612168C86849F20C628A
:1033500090432369A268E5691A4363692B431A43C2
:103360000243CA602168486920F44072A069104392
:103370004861E1696425B1F5004F9748974A216893
:103380004FF032083FD0914201D081427CD1FEF70C
:103390006DFC00EBC00101EB001061688900B0FB1F
:1033A000F1F6FEF763FC00EBC00101EB0010616871
:1033B0008900B0FBF1F0B0FBF5F06FF01801484365
:1033C00006EB800108EB0110B0FBF5F000F0F00611
:1033D000FEF74CFC00EBC00101EB001061688900B6
:1033E000B0FBF1F0B0FBF5F006EB0016FEF73EFC8B
:1033F00000EBC00101EB001061688900B0FBF1F740
:10340000FEF734FCD2E0914201D081423DD1FEF77B
:103410002DFC00EBC00101EB001061684900B0FB1E
:10342000F1F0B0FBF5F00601FEF720FC00EBC00167
:1034300001EB001061684900B0FBF1F7FEF716FCE4
:1034400000EBC00101EB001061684900B0FBF1F036
:10345000B0FBF5F06FF01801484307EB800108EB73
:10346000C100B0FBF5F000F0F80006EB4006FEF7F7
:10347000FDFB00EBC00101EB001061684900B0FBEF
:10348000F1F7FEF7F3FB3CE055E0FEF7DFFB00EB66
:10349000C00101EB001061684900B0FBF1F0B0FB26
:1034A000F5F00601FEF7D2FB00EBC00101EB0010C6
:1034B00061684900B0FBF1F7FEF7C8FB00EBC00103
:1034C00001EB001061684900B0FBF1F0B0FBF5F0D2
:1034D0006FF01801484307EB800108EBC100B0FB17
:1034E000F5F000F0F80006EB4006FEF7AFFB00EB4E
:1034F000C00101EB001061684900B0FBF1F7FEF775
:10350000A5FB00EBC00101EB001061684900B0FBB6
:10351000F1F0B0FBF5F06FF01801484307EB8001C4
:1035200008EBC100B0FBF5F000F007002168304463
:103530008860BDE8F081FEF789FB00EBC00101EB7C
:10354000001061688900B0FBF1F6FEF77FFB00EB2D
:10355000C00101EB001061688900B0FBF1F0B0FB25
:10356000F5F06FF01801484306EB800108EB0110FD
:10357000B0FBF5F000F0F006FEF768FB00EBC001D1
:1035800001EB001061688900B0FBF1F0B0FBF5F0D1
:1035900006EB0016FEF75AFB00EBC00101EB001032
:1035A00061688900B0FBF1F7FEF750FB00EBC0014A
:1035B00001EB001061688900B0FBF1F0B0FBF5F0A1
:1035C0006FF01801484307EB800108EB0110B0FBD6
:1035D000F5F000F00F00A9E70014014000100140D1
:1035E000FEE7FEE702E008C8121F08C1002AFAD170
:1035F00070477047002001E001C1121F002AFBD173
:103600007047000010B5104A03894381118849BAF8
:1036100001815488CB1A64BA04809488B3F5805F22
:1036200064BA448092798271026901DD521E03E01E
:1036300013F5805F01DA521C026101EB423182898D
:10364000891A416110BD0000140000200249098858
:1036500049BA01818181704714000020FEF764F9A6
:10366000FFF7E8FC00F0DEFAFCF70EFFFFF73CFA8C
:1036700000F0F8FA00F00EF8FEE701460020842979
:1036800000D0C81C704710B500B9012000F066FBDF
:10369000002010BD10B500F0E3FB002010BD10B5F8
:1036A00000F0FAFC012803D0BDE8104000F0B2BCE5
:1036B00010BD3EB504460D46B0F90800FFF7DDFF2A
:1036C00002A9CDE90001208A2B4682B2D4E900107C
:1036D00000F0B6FC012801D000203EBD02983EBD9E
:1036E00000F16C0C8CE80E0080EC030A704780EC53
:1036F000030A70472DE9F041184C0F460546E6686D
:103700002068001D00F04AFA38B9206890F82C10A3
:1037100001208840216981432161681C07D137B1AC
:103720002168BDE8F0410E48091D00F06FBA20681D
:103730003544B5424560216805D2A06BBDE8F04133
:10374000091D00F04BBA606B091D00F047FAA06A32
:10375000854200D2A562BDE8F08100007000002023
:10376000844A00202DE9F041054600F05BFA2E4C1A
:10377000A068401CA06020682C4F10B1606940B365
:103780002DE02560A068012829D1002606EB8600DF
:1037900007EB800000F014FA761C072EF6D32348BE
:1037A0008C3000F00DFA2148A03000F009FA1F48D3
:1037B000B43000F005FA1D48C83000F001FA1B488B
:1037C000DC3000F0FDF919488C3060631430A063E0
:1037D00005E02068E96AC06A884200D82560606A0E
:1037E000401C6062E96A0120226988401043206120
:1037F00001EB810007EB8000291D00F007FA00F0C3
:1038000031FA606900280CD02068E96AC06A8842F1
:1038100007D207494FF080500860BFF34F8FBFF3C6
:103820006F8FBDE8F081000070000020A8490020E3
:1038300004ED00E070B5114E114C17E000F044FBB0
:103840003068B8B100F0A0FC00F0ECF9F068C56891
:10385000281D00F0A3F9A068401EA0606068401E0B
:10386000606000F0FFF9284600F00CF8606800285E
:10387000E4D170BD00F088FCF8E70000704A002039
:103880007000002010B50446006B00F0FFF92046E0
:10389000BDE8104000F0FAB910484FF470514207EB
:1038A00006D0C01D0D4920F00700411AC1F5705126
:1038B0000B4A00230144C2E900030839103A21F001
:1038C000070111604B600B600B1AC0E90013936095
:1038D0004FF000405360D06070470000A80D0020FA
:1038E0005C000020074C4FF08056074DFFF7A2FF09
:1038F00020680128FAD92E60BFF34F8FBFF36F8F76
:10390000F4E70000A849002004ED00E02DE9F047AD
:103910009A46DDE9098481466FF00303206B03EBCF
:1039200082021044089D20F00706700707D050203F
:1039300080F31188BFF34F8FBFF36F8FFEE723181B
:103940000A5C83F834200A5C12B1401C1028F6D3BC
:10395000002784F84370072D00D30625E562C4E9EB
:103960001157201D00F037F904F1180000F033F969
:103970002461C5F107006462A061E76484F85070B7
:1039800052464946304600F0BFF82060B8F1000FBB
:1039900001D0C8F80040BDE8F087000030B51149FB
:1039A00000E011460A688242FBD34B685C188442EF
:1039B00003D1406818444860084643681C18944284
:1039C00009D1084C103C2468A24209D052681A441C
:1039D00042600A6812680260814200D0086030BD0F
:1039E0000460F9E75C0000200648416B096829B1D2
:1039F000416BC968C9684968816270474FF0FF31FF
:103A0000FAE700007000002008484068401C4FF0B2
:103A1000500080F3118804D0BFF34F8FBFF36F8F36
:103A2000FEE7BFF34F8FBFF36F8FFEE76400002008
:103A30002DE9F0410546002700F046FA314E306886
:103A400008B9FFF729FFF06805424BD1C5B3083527
:103A500068070ED005F00700C0F1080005446807AC
:103A600007D0502080F31188BFF34F8FBFF36F8FC3
:103A7000FEE72DB37068854234D8224810300146E5
:103A80000C6801E020460C466168A94202D2216818
:103A90000029F7D131688C4224D007682168016081
:103AA00060680837411B10290FD96019420708D0F8
:103AB000502080F31188BFF34F8FBFF36F8FFEE765
:103AC00010E041606560FFF769FF61687068401A47
:103AD0007060B268904200D2B060F068014300208C
:103AE000C4E9000100F050FB780707D0502080F3B4
:103AF0001188BFF34F8FBFF36F8FFEE73846BDE8E5
:103B0000F08100004C00002010B5031F4FF08074BE
:103B10001C601B1F21F001011960191F044B0B6071
:103B200014390A60091F6FF0020244380A6010BDA0
:103B3000093A000870B50C46064600F073F8154DBA
:103B40002868C06C80B92968012081F850005CB1F8
:103B500001212046FFF7CEFD0F494FF0805008604D
:103B6000BFF34F8FBFF36F8F00F07CF800F05AF86F
:103B70002868C46C002034B116B12968C86402E01A
:103B80002A68611ED164296881F8500000F06AF843
:103B9000204670BD7000002004ED00E0D0E9013245
:103BA00001699A60D0E901235A604A68824201D1D2
:103BB00082684A60002202610868401E08607047FF
:103BC00000F108014FF0FF32C0E90112C16001614C
:103BD00000210160704700210161704730B50B681A
:103BE0005A1C02D000F1080202E0026904E02246F9
:103BF000546825689D42FAD953684B6099608A6081
:103C0000516008610168491C016030BD42684A602A
:103C100093688B6093685960916008610168491CE2
:103C200001607047502080F31188BFF34F8FBFF3BE
:103C30006F8F0A494868401C486001280CD1084829
:103C4000006810F0FF0F07D0502080F31188BFF3F9
:103C50004F8FBFF36F8FFEE77047000064000020B6
:103C600004ED00E00849486828B1401E486001D1D1
:103C700080F311887047502080F31188BFF34F8F75
:103C8000BFF36F8FFEE700006400002070B50028CE
:103C900027D0144DA0F108046168E868014207D1FB
:103CA000502080F31188BFF34F8FBFF36F8FFEE773
:103CB00022683AB1502080F31188BFF34F8FBFF3D1
:103CC0006F8FFEE78143616000F0FEF8606869680D
:103CD000084468602046FFF761FEBDE8704000F0D0
:103CE00053BA70BD4C00002006484FF47A7100684A
:103CF000B0FBF1F14FF0E020491E41610721016165
:103D0000704700004800002010B5FCF7A1FA1149E7
:103D100010280ED300F1E02090F8F0030A789042CA
:103D200007D2502080F31188BFF34F8FBFF36F8FFE
:103D3000FEE709480068896800F4E060884207D916
:103D4000502080F31188BFF34F8FBFF36F8FFEE7D2
:103D500010BD0000640000200CED00E010B5020072
:103D600014D00F48006B38B1502080F31188BFF396
:103D70004F8FBFF36F8FFEE700F0A6F800211046CB
:103D8000FFF7B8FC00F000FA002807D105494FF012
:103D900080500860BFF34F8FBFF36F8F10BD0000DE
:103DA0007000002004ED00E02DE9F0418846040099
:103DB00015D0FFF7A9FF5020EFF3118680F311888B
:103DC000BFF34F8FBFF36F8F94F85000022184F838
:103DD0005010E16C491CE164012808D037E0502004
:103DE00080F31188BFF34F8FBFF36F8FFEE7A06A98
:103DF00038B1502080F31188BFF34F8FBFF36F8F1E
:103E0000FEE7154D286B012778B104F1180113481E
:103E1000FFF7FCFEE06A2968C96A884217D9B8F141
:103E2000000F13D0C8F8007011E0201DFFF7B6FE98
:103E3000E16A2A6907FA01F01043286101EB810069
:103E40000649B43901EB8000211DE1E7EF6186F3FB
:103E50001188BDE8F0810000700000205C4A00205D
:103E60001CB515480024CDE900402346802213A14B
:103E7000144800F0E5F8012809D0401C1AD1502060
:103E800080F31188BFF34F8FBFF36F8FFEE7502091
:103E900080F31188BFF34F8FBFF36F8F06484FF049
:103EA000FF312C38816201214161C460BDE81C40B2
:103EB00000F040B81CBD00009C00002049444C4567
:103EC00000000000E53800080248016B491C01634E
:103ED00070470000700000201448016B11B10121EF
:103EE000C16170470021C1610169B1FA81F1C1F17D
:103EF0001F0101EB81020E4951F822306BB101EB39
:103F0000820101F108034A6852684A609A4201D16D
:103F100052684A60D16801607047502080F3118870
:103F2000BFF34F8FBFF36F8FFEE7000070000020DC
:103F3000A84900201CB532480168324A914207D195
:103F4000502080F31188BFF34F8FBFF36F8FFEE7D0
:103F500000682C49491E884207D1502080F31188FF
:103F6000BFF34F8FBFF36F8FFEE7274908780190AB
:103F7000FF20087008788DF800009DF800009DF87B
:103F8000002000F0F000904207D0502080F311880C
:103F9000BFF34F8FBFF36F8FFEE79DF800001B4A02
:103FA00000F0500010700720906005E09DF8003090
:103FB0005B008DF80030401E9DF800301B06F5D4E4
:103FC000000200F4E0609060019808700C48203016
:103FD000016841F470010160016841F070410160C5
:103FE000FFF782FE00205060FCF7F8F808480168EF
:103FF00041F040410160FCF7E1F800201CBD0000E9
:1040000000ED00E071C20F4100E400E06400002018
:1040100034EF00E010B5502080F31188BFF34F8FCC
:10402000BFF36F8F00F04CF818B104494FF0805087
:104030000860002080F3118810BD000004ED00E04E
:104040002DE9FF5F8346DDE90E87994616468A46CD
:104050009000FFF7EDFC05001AD05420FFF7E8FCB4
:10406000040012D025630021CDE90241CDE900878B
:104070004B46324651465846FFF748FC2046FFF76C
:1040800071FB012004B0BDE8F09F2846FFF7FEFD5C
:104090004FF0FF30F6E700000548416919B1006BA9
:1040A00018B10020704701207047022070470000BF
:1040B000700000200148C0687047000070000020B8
:1040C0002DE9F0412E4C0027206B40B1A069401C27
:1040D000A061E06900B101273846BDE8F081E668DB
:1040E000761CE66013D1606B006838B1502080F315
:1040F0001188BFF34F8FBFF36F8FFEE7606BA16B2B
:104100006163A063206A401C2062FFF76DFCA06A17
:10411000DFF87080864209D3606B006880B1606B05
:10412000C068C568686886420DD2A0622068C06A0F
:1041300000EB800158F821000128CAD90127C8E7FF
:104140004FF0FF30F1E7281DFFF728FDA86A18B1EE
:1041500005F11800FFF722FDE86A0121226981407C
:104160001143216100EB800108EB8100291DFFF75D
:104170004DFDE86A2168C96A8842CDD30127CBE7A3
:1041800070000020A84900202DE9F0472C4D0024A4
:104190002746286B38B1FFF745FD286B401E286382
:1041A000286B40B146E0502080F31188BFF34F8F59
:1041B000BFF36F8FFEE7A968224E0120D1B3A6F1AD
:1041C000B40980463068E8B1F068C46804F11800AA
:1041D000FFF7E4FC201DFFF7E1FCE06A2A6908FA1A
:1041E00000F11143296100EB800109EB8100211DE1
:1041F000FFF70CFDE06A2968C96A8842E2D3C5F876
:104200001C80DFE70CB1FFF7EFFBAC6944B1464619
:10421000FFF756FF00B1EE61641EF9D10020A861DE
:10422000E86938B10849012738070860BFF34F8FA4
:10423000BFF36F8FFFF716FD3846BDE8F08700002B
:10424000700000205C4A002004ED00E0C442000839
:10425000293000080000000000000000800000007D
:10426000B842000819060008000000000000000025
:1042700000010000A8420008192F000801000000FA
:104280000000000080000000000610160006101656
:1042900000000000000000000102030406070809F6
:1042A00000000000010203044D696E69504344613F
:1042B00074615461736B0000436861737369735474
:1042C00061736B0064656661756C745461736B0037
:1042D000F042000800000020AC000000E4350008B7
:1042E0009C430008AC000020EC4D0000F4350008B1
:1042F00000000000000000000000000000000000BE
:1043000000000000000000000000000000000000AD
:10431000B80B48F4D00730F800000000000000009F
:10432000000000000000000000000000010000008C
:1043300010000000000000000024F4000000000055
:10434000000000000000000000000000000000006D
:104350000000000000000000AAAAAAAA00000000B5
:10436000000000000000000000000000000000004D
:10437000000000000000000000000000000000003D
:10438000000000000000000000000000000000002D
:0C43900000000000000000000000000021
:040000050800018965
:00000001FF
